:100000000C9463000C948B000C948B000C948B006C
:100010000C948B000C948B000C948B000C948B0034
:100020000C948B000C948B000C948B000C948B0024
:100030000C948B000C948B000C948B000C948B0014
:100040000C943D050C948B000C9434030C948B00A1
:100050000C948B000C948B000C948B000C948B00F4
:100060000C948B000C948B000000000024002700EF
:100070002A0000000000250028002B0000000000DE
:1000800023002600290004040404040404040202DA
:100090000202020203030303030301020408102007
:1000A0004080010204081020010204081020000012
:1000B0000007000201000003040600000000000029
:1000C0000000D402ED0311241FBECFEFD8E0DEBF45
:1000D000CDBF11E0A0E0B1E0EEE8FEE002C0059087
:1000E0000D92A432B107D9F711E0A4E2B1E001C04A
:1000F0001D92A43EB107E1F710E0C6ECD0E004C0C9
:100100002297FE010E944107C23CD107C9F70E9415
:100110002D030C9445070C940000EF92FF920F936F
:10012000DF93CF93CDB7DEB760970FB6F894DEBFFD
:100130000FBECDBFA82F002309F461C07E01089433
:10014000E11CF11C88E0F70111928A95E9F72983F7
:100150003A834B835C836D837E83AF83988780E291
:10016000801BE82FFF27E7FDF09549815A816B81BD
:100170007C81181684F019861A861B861C868827AF
:1001800099278E1B9F0B04C0440F551F661F771FB6
:100190008A95D2F728C0202F332727FD3095DB0121
:1001A000CA01022E04C0880F991FAA1FBB1F0A9400
:1001B000D2F789879A87AB87BC8704C07695679505
:1001C00057954795EA95D2F78D819E81AF81B88585
:1001D00004C0880F991FAA1FBB1F2A95D2F7482B6E
:1001E000592B6A2B7B2B4D875E876F87788B2985F0
:1001F0003A854B855C856D857E85AF8598898A2F8C
:1002000060960FB6F894DEBF0FBECDBFCF91DF91E1
:100210000F91FF90EF900895CF93DF93EC018D81C4
:100220009E81CB9709F08EC0FE0137968281829520
:100230008695877023812F70220F220F220F282B83
:10024000822F90E060E170E00E94DB06709561957E
:100250007F4FCB01880F991F860F971F880F991F1B
:10026000280F288B8381829586958770248127703B
:10027000220F220F220F282B822F90E060E170E0E6
:100280000E94DB06709561957F4FCB01880F991F07
:10029000860F971F880F991F280F298B84818295BD
:1002A0008F70258123702295207F282B822F90E04C
:1002B00060E170E00E94DB06709561957F4FCB0195
:1002C000880F991F860F971F880F991F280F2A8B59
:1002D000858182958695877026812370220F220F53
:1002E000220F282B822F90E060E170E00E94DB0655
:1002F000709561957F4FCB01880F991F860F971FCF
:10030000880F991F280F2B8B26812695269587818C
:100310008295880F880F807C822B482F50E04053B5
:10032000584F82958F7090E02AEF3FEFBC01629F9B
:10033000C001639F900D729F900D1124480F591FAB
:100340005D8B4C8B1F861E821D821F82188619862C
:100350001A861B861C861D861E86DF91CF91089506
:10036000EF92FF920F931F93CF93DF93EC01262F11
:1003700030E040E050E060E070E080E090E00D812F
:100380000E948D00EF81F885A985BA851B850C85B3
:10039000FD84EE84E22BF32BA42BB52B162B072B1D
:1003A000F82AE92AEF83F887A987BA871B870C8781
:1003B000FD86EE868D819E8101969E838D83CC97EE
:1003C0001CF0CE010E940C01DF91CF911F910F9183
:1003D000FF90EF900895FC0187858F5F87878C33AE
:1003E00069F4178680898F5F808B8C3339F4108A8B
:1003F00081898F5F818B883109F4118A0895FF927A
:100400000F931F93CF93DF93EC0188810E948C069A
:10041000F82E8A81F81649F121E0F216A9F4CE01EE
:100420000E94EB010E94AD058B018B819C8198019C
:10043000281B390BC901815B94401CF0CE010E943E
:100440000C011C830B8310C00E94AD052B813C81E5
:10045000621B730B6C3871051CF4CE0160E002C0A6
:10046000CE0161E00E94B001FA828F2D90E0DF9111
:10047000CF911F910F91FF900895CF92DF92EF924D
:10048000FF920F931F936C0106EC11E0C80160E02E
:1004900071E00E942404F601418950E060E070E0C0
:1004A000C8012AE030E00E941D0577E0E72E71E0E8
:1004B000F72EC801B7010E942404F601408950E0DC
:1004C00060E070E0C8012AE030E00E941D05C8012C
:1004D000B7010E942404F601478550E060E070E017
:1004E000C8012AE030E00E941D05C80169E071E002
:1004F0000E942404F601428950E060E070E0C801E7
:100500002AE030E00E941D0561E1E62E61E0F62E52
:10051000C801B7010E942404F601438950E060E05D
:1005200070E0C8012AE030E00E941D05C801B70153
:100530000E942404F6014489558960E070E0C801F6
:100540002AE030E00E9432051F910F91FF90EF905A
:10055000DF90CF9008950F931F938C01FC0160836F
:1005600012821482138216821582178210861186D7
:1005700012861386148615861686158A148A138A9F
:10058000128A118A108A178686EC91E040E855E2BB
:1005900060E070E00E947103F801808160E00E94D9
:1005A0001F061F910F9108958CE291E0609119014F
:1005B0000E94AB02089586EC91E063E171E00E9435
:1005C00053048CE291E00E94FF01892B21F080917D
:1005D0001B0161E003C080911B0160E00E943F06A7
:1005E00080913D0180932A0110922B0180913C0162
:1005F000809328011092290180913B01809324016E
:10060000109225018CE291E00E943D0264E170E0CD
:1006100080E090E00E94BB0580912401909125012B
:100620009093270180932601089580911B0161E03A
:100630000E941F0688E061E00E941F0688E061E0DA
:100640000E943F066CE271E080E090E00E94BB05F2
:1006500088E060E00E943F0608950E94E5050E9440
:1006600015030E94DB02FDCF1F920F920FB60F926F
:1006700011242F933F934F935F936F937F938F93A7
:100680009F93AF93BF93EF93FF934091C600E09188
:10069000C201F091C301CF01019660E870E00E94B1
:1006A000DB069C018091C4019091C5012817390790
:1006B00039F0EE5BFE4F40833093C3012093C201BB
:1006C000FF91EF91BF91AF919F918F917F916F912A
:1006D0005F914F913F912F910F900FBE0F901F9000
:1006E0001895AF92BF92CF92DF92EF92FF920F9345
:1006F0001F93CF93DF936C017A018B01DC01149679
:10070000AD90BC901597CB01BA0122E030E040E0FB
:1007100050E00E941007205C3D4B404F5F4FCA01E4
:10072000B901A80197010E941007C901DA010197D8
:10073000A109B109292F3A2F4B2F552747FD5A956B
:100740000196A11DB11DE5012883E601EE81FF811F
:1007500081508083EA85FB85208141E050E0CA0119
:100760000E8402C0880F991F0A94E2F7282B208379
:10077000EA85FB852081CA010F8402C0880F991F7A
:100780000A94E2F7282B2083EA85FB85808108887C
:1007900002C0440F551F0A94E2F7842B8083DF9137
:1007A000CF911F910F91FF90EF90DF90CF90BF906E
:1007B000AF900895FC01A085B18521898C9190E0CE
:1007C000022E02C0959587950A94E2F780FFF6CF36
:1007D0000484F585E02D6083089581E291E0909393
:1007E000C7018093C60182E491E09093C901809390
:1007F000C80185EC90E09093CB018093CA0184EC12
:1008000090E09093CD018093CC0180EC90E09093A8
:10081000CF018093CE0181EC90E09093D101809341
:10082000D00186EC90E09093D3018093D20184E0D4
:100830008093D40183E08093D50187E08093D60133
:1008400085E08093D70108950F931F93CF93DF9393
:100850008C01EB0109C02196D801ED91FC9101902A
:10086000F081E02DC801099568816623A1F7DF9129
:10087000CF911F910F9108950F931F938C01DC016D
:10088000ED91FC910190F081E02D6DE00995D8018A
:10089000ED91FC910190F081E02DC8016AE009958D
:1008A0001F910F9108950F931F938C010E942404B0
:1008B000C8010E943C041F910F9108952F923F920E
:1008C0004F925F926F927F928F929F92AF92BF9260
:1008D000CF92DF92EF92FF920F931F93DF93CF930C
:1008E000CDB7DEB7A0970FB6F894DEBF0FBECDBF71
:1008F0001C016A017B01411551056105710549F42F
:10090000DC01ED91FC910190F081E02D60E309950F
:1009100054C0882499245401422E552466247724F7
:1009200001E010E00C0F1D1F080D191DC701B601D5
:10093000A30192010E94EE06F80160830894811CD5
:10094000911CA11CB11CC701B601A30192010E9418
:10095000EE06C901DA016C017D01C114D104E10484
:10096000F104F1F681E0E82EF12CEC0EFD1EE80C0E
:10097000F91C3E010894611C711CD501C40101974A
:10098000A109B1096C01C818D90814C0F601EE0D0F
:10099000FF1D60816A3010F4605D01C0695CD101A7
:1009A000ED91FC910190F081E02DC1010995089431
:1009B000E108F1086E147F0449F7A0960FB6F89489
:1009C000DEBF0FBECDBFCF91DF911F910F91FF9082
:1009D000EF90DF90CF90BF90AF909F908F907F90DF
:1009E0006F905F904F903F902F900895EF92FF92FD
:1009F0000F931F93CF93DF93EC017A018B0177FF65
:100A00000FC0E881F9810190F081E02D6DE2099538
:100A100010950095F094E094E11CF11C011D111D4E
:100A2000CE01B801A7012AE00E945E04DF91CF91B8
:100A30001F910F91FF90EF900895DC012115310572
:100A400041F4ED91FC910190F081E02D642F099526
:100A500008952A30310519F40E94F60408950E9481
:100A60005E0408950F931F938C010E941D05C80119
:100A70000E943C041F910F9108951F920F920FB690
:100A80000F9211242F938F939F93AF93BF938091D5
:100A9000D8019091D901A091DA01B091DB010196C2
:100AA000A11DB11D8093D8019093D901A093DA01C3
:100AB000B093DB018091DC019091DD01A091DE011A
:100AC000B091DF018050904CAF4FBF4F8093DC015D
:100AD0009093DD01A093DE01B093DF0127C08091E8
:100AE000DC019091DD01A091DE01B091DF01805821
:100AF0009E43A040B0408093DC019093DD01A09321
:100B0000DE01B093DF018091E0019091E101A091BD
:100B1000E201B091E3010196A11DB11D8093E001B6
:100B20009093E101A093E201B093E3018091DC0195
:100B30009091DD01A091DE01B091DF0181589E43CB
:100B4000A040B04060F6BF91AF919F918F912F91DF
:100B50000F900FBE0F901F9018958FB7F8942091AB
:100B6000E0013091E1014091E2015091E3018FBF3A
:100B7000B901CA010895EF92FF920F931F937B0171
:100B80008C018FB7F8944091E0015091E1016091A0
:100B9000E2017091E3018FBF2FB7F8948091E001DB
:100BA0009091E101A091E201B091E3012FBF841B7C
:100BB000950BA60BB70BE816F9060A071B0760F79B
:100BC0001F910F91FF90EF900895789484B5826003
:100BD00084BD84B5816084BD85B5826085BD85B5E1
:100BE000816085BDEEE6F0E0808181608083E1E890
:100BF000F0E0808182608083808181608083E0E892
:100C0000F0E0808181608083E1EBF0E080818460AE
:100C10008083E0EBF0E0808181608083EAE7F0E0B0
:100C20008081846080838081826080838081816014
:100C300080838081806880831092C1000895282F6E
:100C400030E0C90186569F4FFC0194912A573F4FCF
:100C5000F9018491882391F0E82FF0E0EE0FFF1F57
:100C6000E859FF4FA591B491662329F48C91909592
:100C700089238C9308958C91892B8C930895482F08
:100C800050E0CA0182559F4FFC012491CA0186564B
:100C90009F4FFC0194914A575F4FFA0134913323DF
:100CA000D1F1222331F1233021F4809180008F771C
:100CB00005C0243031F4809180008F7D80938000C6
:100CC00018C0213019F484B58F7704C0223021F484
:100CD00084B58F7D84BD0DC0263021F48091B00095
:100CE0008F7705C0273029F48091B0008F7D8093E5
:100CF000B000E32FF0E0EE0FFF1FEE58FF4FA5917D
:100D0000B491662329F48C91909589238C9308954E
:100D10008C91892B8C930895682F70E0CB018255BC
:100D20009F4FFC012491CB0186569F4FFC014491BB
:100D30006A577F4FFB019491992319F420E030E02A
:100D400038C0222331F1233021F4809180008F7745
:100D500005C0243031F4809180008F7D8093800025
:100D600018C0213019F484B58F7704C0223021F4E3
:100D700084B58F7D84BD0DC0263021F48091B000F4
:100D80008F7705C0273029F48091B0008F7D809344
:100D9000B000892F90E0880F991F84589F4FFC0165
:100DA000A591B4918C9120E030E0842311F021E0F2
:100DB00030E0C901089597FB092E07260AD077FD78
:100DC00004D049D006D000201AF4709561957F4F69
:100DD0000895F6F7909581959F4F0895A1E21A2EF8
:100DE000AA1BBB1BFD010DC0AA1FBB1FEE1FFF1FCF
:100DF000A217B307E407F50720F0A21BB30BE40B1F
:100E0000F50B661F771F881F991F1A9469F7609565
:100E10007095809590959B01AC01BD01CF0108951F
:100E200097FB092E05260ED057FD04D0D7DF0AD038
:100E3000001C38F450954095309521953F4F4F4F09
:100E40005F4F0895F6F790958095709561957F4F67
:100E50008F4F9F4F0895AA1BBB1B51E107C0AA1FCC
:100E6000BB1FA617B70710F0A61BB70B881F991F4B
:100E70005A95A9F780959095BC01CD010895EE0F84
:0E0E8000FF1F0590F491E02D0994F894FFCF28
:100E8E0054696D653A20003A0020446174653A2039
:100E9E00002E006C6F6F7021000C000D0000000022
:040EAE0000DA030063
:00000001FF
